{
  "contractName": "overloading",
  "abi": [
    {
      "constant": true,
      "inputs": [
        {
          "internalType": "uint256",
          "name": "a",
          "type": "uint256"
        },
        {
          "internalType": "uint256",
          "name": "b",
          "type": "uint256"
        }
      ],
      "name": "getSum",
      "outputs": [
        {
          "internalType": "uint256",
          "name": "",
          "type": "uint256"
        }
      ],
      "payable": false,
      "stateMutability": "pure",
      "type": "function"
    },
    {
      "constant": true,
      "inputs": [
        {
          "internalType": "uint256",
          "name": "a",
          "type": "uint256"
        },
        {
          "internalType": "uint256",
          "name": "b",
          "type": "uint256"
        },
        {
          "internalType": "uint256",
          "name": "c",
          "type": "uint256"
        }
      ],
      "name": "getSum",
      "outputs": [
        {
          "internalType": "uint256",
          "name": "",
          "type": "uint256"
        }
      ],
      "payable": false,
      "stateMutability": "pure",
      "type": "function"
    },
    {
      "constant": true,
      "inputs": [],
      "name": "callSumWithTwoArguments",
      "outputs": [
        {
          "internalType": "uint256",
          "name": "",
          "type": "uint256"
        }
      ],
      "payable": false,
      "stateMutability": "pure",
      "type": "function"
    },
    {
      "constant": true,
      "inputs": [],
      "name": "callSumWithThreeArguments",
      "outputs": [
        {
          "internalType": "uint256",
          "name": "",
          "type": "uint256"
        }
      ],
      "payable": false,
      "stateMutability": "pure",
      "type": "function"
    }
  ],
  "bytecode": "0x608060405234801561001057600080fd5b5061010d806100206000396000f3fe6080604052348015600f57600080fd5b506004361060465760003560e01c80634585ba2e14604b5780638e86b125146063578063cb2b0819146083578063d20741101460a9575b600080fd5b605160af565b60408051918252519081900360200190f35b605160048036036040811015607757600080fd5b508035906020013560c0565b605160048036036060811015609757600080fd5b508035906020810135906040013560c4565b605160ca565b600060bb6001600260c0565b905090565b0190565b91010190565b600060bb60016002600360c456fea265627a7a72315820d179e64ed0f30c2848e63af960f20d2f3bdb0f7cef29399b29709ccdcdf6a5a864736f6c63430005100032",
  "source": "pragma solidity ^0.5.0;\r\n\r\ncontract overloading {\r\n    function getSum(uint a, uint b) public pure returns (uint) {\r\n        return a + b;\r\n    }\r\n\r\n    function getSum(\r\n        uint a,\r\n        uint b,\r\n        uint c\r\n    ) public pure returns (uint) {\r\n        return a + b + c;\r\n    }\r\n\r\n    function callSumWithTwoArguments() public pure returns (uint) {\r\n        return getSum(1, 2);\r\n    }\r\n\r\n    function callSumWithThreeArguments() public pure returns (uint) {\r\n        return getSum(1, 2, 3);\r\n    }\r\n}\r\n",
  "sourcePath": "C:\\Users\\NARENDER KESWANI\\Desktop\\blockchain-toolkit-overloading\\contracts\\overloading.sol",
  "compiler": {
    "name": "solc",
    "version": "0.5.16+commit.9c3226ce.Emscripten.clang"
  },
  "schemaVersion": "3.4.10",
  "updatedAt": "2022-10-30T08:35:38.190Z",
  "networkType": "ethereum",
  "devdoc": {
    "methods": {}
  },
  "userdoc": {
    "methods": {}
  }
}